:1000000045C0000060C000005EC000005CC0000091
:100010005AC0000058C0000056C0000054C0000084
:1000200052C0000050C000004EC000004CC0000094
:100030004AC00000CAC0000046C0000044C0000022
:1000400042C0000040C000003EC000003CC00000B4
:100050003AC0000038C0000036C0000034C00000C4
:1000600032C0000030C000002EC000002CC00000D4
:100070002AC0000028C0000026C0000024C00000E4
:1000800022C0000020C000001EC0000011241FBEBE
:10009000CFEFD0E4DEBFCDBF11E0A0E0B1E0EAE6F3
:1000A000FDE000E00BBF02C007900D92A23CB1073B
:1000B000D9F721E0A2ECB1E001C01D92AA3DB20740
:1000C000E1F7F2D450C69CCF181619069CF440E014
:1000D00050E077E063E00BC00000215031092115AA
:1000E0003105D1F74F5F5F4F4817590719F0272F98
:1000F000362FF2CF08955E9888B95F9A00005F9816
:1001000082E090E0E1CF089581E0F5CF089581315C
:1001100018F48158F0CF08958155EDCF089584E605
:1001200090E0D2DF88E3E7DF86E0E5DF8FE0E3DF22
:1001300081E0E1DF8AE090E0C7CF08955E9A88B958
:100140005F9A00005F9881E090E0BECF08950F9322
:100150001F93CF93DF93182FEB01D6DF888188237D
:1001600059F001E0010F812FD2DF8991E7DF88810B
:10017000882311F0102FF5CFDF91CF911F910F91B0
:1001800008958BE0809381008DE790E09093890043
:100190008093880082E080936F0010928500109217
:1001A000840080912A0190912B01A0912C01B091A3
:1001B0002D018093CC019093CD01A093CE01B093FB
:1001C000CF018FB780688FBF08951F920F920FB62F
:1001D0000F9211248F939F93AF93BF938091CC0183
:1001E0009091CD01A091CE01B091CF010197A109CD
:1001F000B1098093CC019093CD01A093CE01B0932F
:10020000CF01892B8A2B8B2B99F481E08093D0012D
:1002100080912A0190912B01A0912C01B0912D0188
:100220008093CC019093CD01A093CE01B093CF01E8
:10023000BF91AF919F918F910F900FBE0F901F9024
:100240001895CF93DF93CDB7DEB760970FB6F894CC
:10025000DEBF0FBECDBF8095E4E1F1E020E030E0ED
:1002600090E071E0AC01022E02C0559547950A94CA
:10027000E2F740FF06C0A081B181AC0FBD1F7C93A7
:1002800005C0A081B181AC0FBD1F1C922F5F3F4FF5
:1002900032962830310531F7E4E0F1E080E090E07B
:1002A00070E041E09B01082E02C0359527950A9425
:1002B000E2F720FF06C0A081B181AC0FBD1F4C93B7
:1002C00005C0A081B181AC0FBD1F1C920196329672
:1002D0008830910539F7FE017196CE010196229181
:1002E0002BB9208124602BB9E817F907C1F782E008
:1002F0008BB960960FB6F894DEBF0FBECDBFDF910D
:10030000CF9108958091D101813069F018F0823049
:10031000A1F12FC0F9DE6EE271E081E018DF81E02B
:100320008093D1012EC08091D701882329F080913C
:10033000D501882389F125C08091D501811134C070
:1003400020C081E08093C701DFDE6DE471E081E0D1
:10035000FEDE82E897E0B8DE10C082E08093C7013D
:10036000D3DE66E671E081E0F2DE82E897E0ACDEA3
:1003700004C081E08093D10104C08091D10181301B
:10038000D1F480B1809581708093D70180B1809540
:1003900082708093D5010FC082E08093D10180915B
:1003A000D501811108C0CDCF82E08093D101809129
:1003B000D5018111D2CF80E090E008958091D401E1
:1003C000813069F038F0823009F43AC0833009F4A2
:1003D0004FC04BC099DE81E08093D40178C082E0A9
:1003E0008093D40180E193DE8091C201805DA6DE1E
:1003F0008091C4019091C50103970CF049C0809190
:10040000C2019091C30103970CF056C031C060E067
:1004100080E017DF79DE81E07ADE6FE771E081E06E
:1004200096DE87EC97E050DE81E08093C60120C025
:100430006BDE81E06CDE60E971E081E188DE18C08E
:1004400081E08093D40163DE60EA71E081E07FDEC9
:1004500085E05DDE8091C401805D70DE80E157DE65
:100460008091C201805D6ADE03C01092D40107C092
:100470008091D401882319F0833019F028C044DE1C
:1004800026C088EE93E020DE81E08093C6011FC085
:1004900083E08093D40160E080E0D3DE35DE81E04C
:1004A00036DE60EB71E081E052DE87EC97E00CDE37
:1004B00081E08093C601DCCF83E08093D4018091FA
:1004C000C2019091C30103970CF0A1CFB1CF80E09E
:1004D00090E008958091D601813071F028F082304B
:1004E00099F08330D1F021C081E08093D60161E0A2
:1004F00080912901A6CE089582E08093D60160E81C
:10050000809128019ECE089583E08093D60160916A
:1005100024018091260195CE089581E08093D60133
:1005200061E0809129018DCE08951092D601089541
:1005300090B1909591709093CB0120B1209522704D
:100540002093CA018091D201813001F118F08230EC
:1005500011F126C0992369F0211124C081E0809314
:10056000D20180912901803EE8F4880F809329010F
:1005700008952223B9F082E08093D201809129016D
:10058000883080F0869580932901089591110AC0E2
:100590001092D2010895211105C01092D201089540
:1005A0001092D201089590B1909594709093C901E2
:1005B00020B1209528702093C8018091D801813006
:1005C00001F118F0823011F126C0992369F0211150
:1005D00024C081E08093D80180912801803EE8F416
:1005E000880F8093280108952223B9F082E0809338
:1005F000D80180912801883080F086958093280169
:10060000089591110AC01092D8010895211105C0D2
:100610001092D80108951092D801089539D366E058
:1006200070E0C6D2833030F081E08093C90110922F
:10063000C80105C01092C90181E08093C801809172
:10064000D301813031F118F0823051F130C0809106
:10065000C901882379F08091C80181112AC081E005
:100660008093D30180912801803E18F5880F8093F4
:10067000280108958091C8018823D9F082E08093F1
:10068000D301809128018830A0F0869580932801BD
:1006900008958091C90181110CC01092D301089571
:1006A0008091C801811105C01092D3010895109264
:1006B000D30108958091D901823009F45DC028F4F6
:1006C000882351F0813061F04AC1833009F4A0C021
:1006D000843009F4EFC043C181E08093D90160C147
:1006E00080912601909127019C01220F331F213810
:1006F0003105C4F0209124013091250135952795CD
:100700002130310559F42091290130E082239323CF
:10071000892B21F083E08093D9016CC182E0809322
:10072000D90153C14091240150912501BA01759519
:1007300067956130710581F46091290170E086232D
:100740009723892B09F480C184E08093D90167C184
:1007500083E08093D9014EC1141615060CF420C114
:100760001092D9018091C2019091C301019690939A
:10077000C3018093C201F6C08091260190912701A8
:100780009C013595279512161306C4F0209124017B
:1007900030912501359527952130310559F4209167
:1007A000290130E082239323892B21F084E0809378
:1007B000D90135C181E08093D901F2C04091240173
:1007C00050912501BA01759567956130710581F4E5
:1007D0006091290170E086239723892B09F43AC19F
:1007E00083E08093D90106C184E08093D90117C1C9
:1007F000141615060CF4E9C01092D9018091C201BB
:100800009091C30101969093C3018093C201AAC045
:1008100080912401909125019C01220F331F2038E3
:100820003105E9F4409126015091270142305105EC
:100830005CF46091280170E046235723452B79F042
:1008400081E08093D901ACC06091280170E046231B
:100850005723452B21F082E08093D901B6C0409107
:10086000260150912701559547951416150624F039
:1008700084E08093D901D3C06091280170E04623C1
:100880005723452B39F02038310521F481E080933E
:10089000D90186C0803891050CF4ACC01092D90102
:1008A0008091C4019091C50101969093C5018093F8
:1008B000C40158C080912401909125019C01220F10
:1008C000331F2038310501F5409126015091270151
:1008D000BA01660F771F613871055CF060912801DD
:1008E00070E046235723452B79F082E08093D901AD
:1008F0006CC06091280170E046235723452B21F0FE
:1009000081E08093D9014CC040912601509127018C
:10091000440F551F4138510524F083E08093D901DD
:1009200069C06091280170E046235723452B39F0B8
:100930002038310521F482E08093D90146C0803807
:1009400091050CF46CC01092D9018091C401909172
:10095000C50101969093C5018093C40103C0109214
:10096000D90111C08091D901823079F130F4882306
:1009700051F0813009F074C013C08330D9F1843054
:1009800009F06EC04CC088E090E0909327018093FE
:10099000260180E190E0909325018093240160C0BE
:1009A0008091260190912701880F991F909327012C
:1009B000809326018091240190912501959587953A
:1009C00090932501809324014BC080912601909142
:1009D0002701959587959093270180932601809113
:1009E00024019091250195958795909325018093F9
:1009F000240136C080912601909127019595879515
:100A000090932701809326018091240190912501E4
:100A1000880F991F909325018093240121C0809114
:100A2000260190912701880F991F909327018093A9
:100A300026018091240190912501880F991F9093A0
:100A40002501809324010CC026233723232B09F092
:100A50007FCE82CE26233723232B09F0C5CEC8CEE6
:100A600080E090E008951092C6011092C70160E006
:100A700080E0E7DB1092C5011092C4011092C3011F
:100A80001092C20188E3809329018093280188E0B5
:100A900090E0909327018093260180E190E090936D
:100AA000250180932401089581E090E0A0E0B0E06A
:100AB00080932A0190932B01A0932C01B0932D01D8
:100AC0008093CC019093CD01A093CE01B093CF0140
:100AD00058DB11B88FEF82B984B915B887B918B847
:100AE0008AB91BB81CDBC0E0D0E0E12CF12CC12C92
:100AF000D12C00E010E099249A94A12CB12CB3DF02
:100B00001092D2011092D8011092D3011092D90103
:100B10001092D1011092D4019092D6018091C70118
:100B2000811105C0EFDB8091C7018823D9F3049BB5
:100B3000E6CF8091C6018111E2CF04C08091C60149
:100B40008111DDCFF5DC8091C701813041F488EC63
:100B5000C816D1043CF062DDCA2CDB2C03C0823005
:100B600009F421DD0C3281E018071CF0A3DD0A2D09
:100B70001B2D8AEFE816F1041CF020DCEA2CFB2C7C
:100B80001C161D061CF4A6DCCA2DDB2D0F5F1F4FA3
:100B90008FEFC81AD80A8FEFE81AF80A21968091C9
:100BA000D0018823E1F31092D0010499C7CFA7CFD9
:100BB00097FB072E16F4009406D077FD08D00BD0D3
:100BC00007FC05D03EF4909581959F4F0895709550
:100BD00061957F4F0895AA1BBB1B51E107C0AA1F57
:100BE000BB1FA617B70710F0A61BB70B881F991FCE
:100BF0005A95A9F780959095BC01CD0108958F92E3
:100C00009F92AF92BF92CF92DF92EF92FF92CF93DB
:100C1000DF93EC01688179818A819B81611571057F
:100C20008105910521F464E279ED8BE597E02DE1F2
:100C300033EF41E050E03AD049015A019B01AC0149
:100C4000A7EAB1E44FD06B017C01ACEEB4EFA50193
:100C5000940154D0C60ED71EE81EF91EF7FE06C03A
:100C600081E0C81AD108E10880E8F80AC882D98270
:100C7000EA82FB82C6019F77DF91CF91FF90EF90D0
:100C8000DF90CF90BF90AF909F908F900895B7CF97
:100C900080E091E0B4CFA0E0B0E0809300019093B9
:100CA0000101A0930201B09303010895052E97FB63
:100CB00016F400940FD057FD05D024D007FC02D0C5
:100CC00046F408C050954095309521953F4F4F4FC1
:100CD0005F4F089590958095709561957F4F8F4FE8
:100CE0009F4F089531D0A59F900DB49F900DA49F64
:100CF000800D911D11240895B7FFF4CFF3DF821BFF
:100D0000930B0895A1E21A2EAA1BBB1BFD010DC077
:100D1000AA1FBB1FEE1FFF1FA217B307E407F507AB
:100D200020F0A21BB30BE40BF50B661F771F881F87
:100D3000991F1A9469F760957095809590959B011D
:100D4000AC01BD01CF010895A29FB001B39FC001C6
:100D5000A39F700D811D1124911DB29F700D811DE7
:0A0D60001124911D0895F894FFCFAF
:100D6A00010000000D00030004000A0006000B0049
:100D7A000F00100009000E0008000C000100070017
:100D8A000200050010000800383801000000312E6A
:100D9A002053696E676C6520506C61796572322EDA
:100DAA00204D756C7469706C617965720053696E57
:100DBA00676C6520506C6179657220202053656CE0
:100DCA006563746564004D756C746920506C617953
:100DDA0065722020202053656C6563746564005039
:100DEA006C6179657220322057696E732121210066
:100DFA00417961796121212041796179612121005B
:100E0A0050313A202020202020202050323A200041
:100E1A00506C6179657220312057696E73212121E6
:020E2A000000C6
:00000001FF
